:0300000002155492
:0C155400787FE4F6D8FD758120021406B3
:101406001206F374FFFFFE121495E490002EF0A36B
:10141600F074FF90002CF0A3F01206F37F007EF824
:101426001214957FB87E0B12151E7FE07E071214EC
:10143600957FB87E0B12151E7F1F7E001214957FB6
:08144600B87E0B12151E80D1C7
:02157800200051
:1014DB008F20A2079295C297D297A2069295C29798
:1014EB00D297A2059295C297D297A2049295C297D2
:1014FB00D297A2039295C297D297A2029295C297C6
:10150B00D297A2019295C297D297A2009295C297B9
:03151B00D2972242
:04156A00121573FFE4
:05156E00D2820214DB33
:10154400AD07AC06D282ECFF1214DBAF050214DB4C
:05157300C2820214DB3E
:0A156000121573AE04AF0502154426
:10144E00900024EEF0A3EFF07F2A12157390002483
:10145E00E0FF12156EA3E0FF12156EEAFF12156E75
:10146E00AF0312156E7F2B121573ECFF12156EAFB4
:10147E000512156E90002AE0FF12156EA3E0FF1202
:07148E00156E7F2C0215739F
:1006F300D28020805BE4FDFCFFFE1215607BFF7A55
:10070300157978E4FDFCFFFE12117D900004120FB1
:10071300C100000000E4900008F0FDFCFFFE120F92
:10072300F2E4900006F0FBFAFDFCFFFE121211E466
:10073300FDFCFFFE121371E4900006F0A3F0FBFA38
:10074300FDFCFFFE1210D3E4FBFDFCFFFE1208EFDD
:10075300C2817F147E0012151ED2817F147E001287
:10076300151EC2807FCB1215737F3912156E7F2C35
:1007730012156EE4FF12156E7F3412156E7F02128E
:10078300156E7FCF12156A7FC112156E7F30121559
:100793006E7FE81215737F8512156EFF12156E7F3B
:1007A3007812156E7FEA12156A12156E7FED121517
:1007B300737F6412156E7F0312156E7F1212156E0E
:1007C3007F8112156E7FF71215737F2012156E7FCE
:1007D300C01215737F2312156E7FC11215737F101C
:1007E30012156E7FC51215737F3E12156E7F281288
:1007F300156E7FC71215737F8612156E7F3612151D
:10080300737F4812156E7F3A1215737F5512156E5A
:100813007FB112156A7F1812156E7FB61215737F9A
:100823000812156E7F8212156E7F2712156E7FF2E6
:1008330012156A7F261215737F0112156E7FE0125F
:1008430015737F0F12156E7F3112156E7F2B1215E4
:100853006E7F0C12156E7F0E12156E7F0812156EC9
:100863007F4E12156E7FF112156E7F3712156E7F54
:100873000712156E7F1012156E7F0312156E7F0E11
:1008830012156E7F0912156EFF12156E7FE1121598
:100893006A7F0E12156E7F1412156E7F0312156E8A
:1008A3007F1112156E7F0712156E7F3112156E7F41
:1008B300C112156E7F4812156E7F0812156E7F0FD9
:1008C30012156E7F0C12156E7F3112156E7F361264
:1008D300156E7F0F12156E7F111215737F78FE123E
:0C08E300151E7F291215737F2C0215735F
:02149500AC06A3
:10149700EC900000F0A90790002A7401F0A3743FB4
:1014A700F07BEF7A00E4FDFCFFFE12144EE4FBFA3A
:1014B700900000E0FF12156EAF0112156E0BBB0016
:1014C700010ABA01EBBB40E80DBD00010CED64F069
:0314D7004C70DA7C
:0114DA0022EF
:10131F00900004E0FEA3E0FF900001E02FFF90009B
:10132F0000E03E900006FEE0FCA3E0FD900003E02D
:08133F002DFD900002E03CFCD2
:10134700AB07AA068D828C83C006C007AE83AF8227
:1013570090002AEEF0A3EFF0D007D00612144E90BB
:0A136700002CE0FEA3E0FF02154495
:10137100AB07AA068D828C83EB24FFFFEA34FFFEC4
:10138100C006C007E58224FFFDE58334FFFCEB24A2
:1013910001FBE43AFAAE83AF82EF2401FFE43E9011
:1013A1000006F0A3EFF090002CE0FFA3E09000080E
:0C13B100CFF0A3EFF0D007D00602129995
:10129900900000EEF0A3EFF0A3ECF0A3EDF0A3EAC9
:0412A900F0A3EBF0D3
:1012AD00C007A3E0FFA3E090002ACFF0A3EFF0D09A
:1012BD000712144E900002E0FFA3E090000ACFF059
:1012CD00A3EFF0900006E0FEA3E0FFD390000BE04B
:1012DD009F90000AE09E5039900000E0FEA3E0FBD5
:1012ED00AA06C3900005E09B900004E09A4012907E
:1012FD000008E0FEA3E0FF1215440BBB00010A80BD
:10130D00E190000BE004F070BA90000AE004F08068
:01131D00B21D
:01131E0022AC
:0E0AE600900008EEF0A3EFF0A3ECF0A3EDF00B
:100AF400E4900012F0A3F0A3F0A3F0900008E0FE4D
:100B0400A3E0FFC3EB9FFFEA9E900016F0A3EFF073
:100B140090000AE0FAA3E0FBC390000FE09BFE9074
:100B2400000EE09A900018F0A3CEF0900008E0FFC9
:100B3400A3E0900020CFF0A3EFF0A3EAF0A3EBF042
:100B4400900016E0FEA3E0FFD39400EE648094804E
:100B5400400A90001CE4F0A304F08021EF4E7008DA
:100B640090001CF0A3F0801574FF90001CF0A3F01B
:100B7400C3E49FFFE49E900016F0A3EFF0900018EA
:100B8400E0FEA3E0FFD39400EE64809480400A90DA
:100B9400001EE4F0A304F08021EF4E700890001EC4
:100BA400F0A3F0801574FF90001EF0A3F0C3E49F3F
:100BB400FFE49E900018F0A3EFF0900018E0FEA36D
:100BC400E0FF900016E0FCA3E0FDD39FEE6480F804
:100BD400EC64809890001A4007ECF0A3EDF08005D7
:100BE400EEF0A3EFF0E4900010F0A3F090001BE00F
:100BF4002401FF90001AE03400FED3900011E09F1E
:100C0400900010E09E4003020CD0900020E0FEA370
:100C1400E0FFA3E0FCA3E0FD121347900016E0FE02
:100C2400A3E0FF900013E02FF0900012E03EF0905C
:100C34000018E0FEA3E0FF900015E02FF0900014F0
:100C4400E03EF090001AE0FEA3E0FF900012E0FC0A
:100C5400A3E0FDD39FEE6480F8EC6480984020ED1F
:100C64009FFFEC9E900012F0A3EFF090001CE0FEBA
:100C7400A3E0FF900021E02FF0900020E03EF090F0
:100C8400001AE0FEA3E0FF900014E0FCA3E0FDD313
:100C94009FEE6480F8EC6480984020ED9FFFEC9E0A
:100CA400900014F0A3EFF090001EE0FEA3E0FF908C
:100CB4000023E02FF0900022E03EF0900011E004C9
:0C0CC400F07006900010E004F0020BF04D
:010CD0002201
:1010D300900004EAF0A3EBF0900000EEF0A3EFF031
:1010E300A3ECF0A3EDF0C007A3E0FAA3E0FB9000AC
:1010F30002E0FFA3E090000ECFF0A3EFF0D00712C1
:101103000AE6900000E0FAA3E0FBFFAE02C007A3EB
:10111300E0FCA3E0FD900006E0FFA3E090000ECF0B
:10112300F0A3EFF0D007120AE6900006E0FCA3E07C
:10113300FD900004E0FAA3E0FBA3E0FFA3E090002E
:101143000ECFF0A3EFF0900000E0FEA3E0FF120A41
:10115300E6900004E0FAA3E0FBFFAE02C0079000B4
:1011630002E0FCA3E0FD900006E0FFA3E090000E88
:0A117300CFF0A3EFF0D007020AE668
:0E08EF00900000EEF0A3EFF0A3ECF0A3EDF00C
:1008FD00E4A3F0A3F0EBFF7E00A3EEF0A3EFF02551
:10090D00E0FFEE33FEC374039F900009F0E49E9068
:10091D000008F0900006E0FEA3E0FFD3900005E094
:10092D009FEE6480F8900004E06480984003020A12
:10093D00E5C3900001E09FFF900000E09EFE900057
:10094D0004E0FCA3E0FDC3900003E09DFD900002D8
:10095D00E09CFC121347900006E0FEA3E0FF900020
:10096D0001E02FFF900000E03EFE900004E0FCA3AC
:10097D00E0FDC3900003E09DFD900002E09CFC12A1
:10098D001347900004E0FEA3E0FFC3900001E09F39
:10099D00FF900000E09E121332900006E0FEA3E0EF
:1009AD00FFC3900001E09FFF900000E09EFE9000CD
:1009BD0004E0FCA3E0FDC3900003E09DFD90000268
:1009CD00E09CFC121347900004E0FEA3E0FFC390EF
:1009DD000001E09FFF900000E09EFE900006E0FC0D
:1009ED00A3E0FDC3900003E09DFD900002E09CFCA0
:1009FD00121347900006E0FEA3E0FF900001E02FE8
:100A0D00FF900000E03E900004121335900004E0CA
:100A1D00FEA3E0FF900001E02FFF900000E03EFEFE
:100A2D00900006E0FCA3E0FDC3900003E09DFD9067
:100A3D000002E09CFC12134712131F900006E0FE0B
:100A4D00A3E0FFC3900001E09FFF900000E09EFE39
:100A5D00900004121336900005E004F0700690002B
:100A6D0004E004F0C3900008E0648094805024906A
:100A7D000004E0FEA3E07802C333CE33CED8F924D0
:100A8D0006FFE43EFE900009E02FF0900008E03EE6
:100A9D00F0803F900006E0FEA3E0FFC3900005E06C
:100AAD009FFF900004E09EFEEF7802C333CE33CE5D
:100ABD00D8F9240AFFE43EFE900009E02FF09000E3
:100ACD0008E03EF0900007E024FFF0900006E034CF
:080ADD00FFF012131F020920B3
:010AE50022EE
:100CD10090000CEEF0A3EFF0A3ECF0A3EDF0A3EB8A
:010CE100F022
:100CE20090000CE0FEA3E0FF900014EEF0A3EFF002
:100CF20090002CE0FDA3E0900016CDF0A3EDF0D320
:100D0200EF94E0EE94004003020E6890000EE0FCC7
:100D1200A3E0FD9430EC94014003020E68900010B1
:100D2200E024E0F090000CE0FAA3E0FFAE02C0067F
:100D3200C0072407FBE43AFAA3E0FEA3E0240FFF76
:100D4200E43E90002AF0A3EFF0D007D00612144E32
:100D5200900011E06003020DF0F9900010E075F0D0
:100D620010A4FFE97C002FFFEC35F0FE74032FF591
:100D72008274013EF583E493900012F0E4A3F090B4
:100D82000012E030E005900016800390002EE0FF94
:100D9200A3E090002CCFF0A3EFF090002CE0FEA394
:100DA200E0FF121544900012E0C313F090000DE032
:100DB20004F0700690000CE004F0900013E004F0E0
:100DC200E0C3940840B9900014E0FFA3E090000C47
:100DD200CFF0A3EFF090000FE004F0700690000E49
:100DE200E004F009E964106003020D5C8069E4F933
:100DF200900010E075F010A4FFE97C002FFFEC35A5
:100E0200F0FE74032FF58274013EF583E4939000A3
:100E120012F0E4A3F0900013E0FFC3940850339063
:100E22000012E030E01F90000DE02FFF90000CE078
:100E32003400FEE9FD90000FE02DFD90000EE0343D
:100E420000FC121347900012E0C313F0A3E004F079
:100E520080C309E9B41099900016E0FFA3E0900066
:060E62002CCFF0A3EFF01D
:010E68002267
:0813BD0090000CEFF0A3EDF02D
:1013C500A3120FC10000000190000DE0FF14F0EF23
:1013D5006020A3E0F8A3E0F9A3E0FAA3E0FB900006
:1013E5000CE0FFE4FCFDFE120E9890000E120FB506
:1013F50080D690000EE0FCA3E0FDA3E0FEA3E0FF95
:0114050022C4
:0E0FF200900000EEF0A3EFF0A3ECF0A3EDF002
:10100000E490000BF0900004A3A3E0FEA3E0FFE453
:10101000FCFD900004120FB5E4900009F090000868
:10102000E0FFA3E0FEC39F40030210D2C3EF9E1473
:10103000FD7F0A1213BDA804A905AA06AB079000FC
:1010400004E0FCA3E0FDA3E0FEA3E0FF120F23E415
:101050007B0AFAF9F8120F2390000AEBF0A3E07074
:101060003B900008E014FFA3E0FEC39F502EA3E0D6
:101070007024EE75F008A4FF900001E02FFF9000AF
:1010800000E035F0FE900002E0FCA3E0FDE49000FB
:1010900011F07B20803090000B7401F0900009E08B
:1010A00075F008A4FF900001E02FFF900000E035EC
:1010B000F0FE900002E0FCA3E0FD90000AE0243086
:1010C000FBE4900011F0120CD1900009E004F00252
:0210D000101DF1
:0110D20022FB
:10121100900000EEF0A3EFF0A3ECF0A3EDF0A3EA51
:04122100F0A3EBF05B
:10122500E4900007F0900006E0F9A3E0FFC39950B1
:1012350062C3E99F14FD7F0A1213BDA804A905AA7C
:1012450006AB07900004E0FEA3E0FFE4FCFD120FEF
:1012550023E47B0AFAF9F8120F23AF03900008EF95
:10126500F0900007E075F008A4FF900001E02FFF63
:10127500900000E035F0FE900002E0FCA3E0FDEBFD
:101285002430FBE4900011F0120CD1900007E0042B
:03129500F0809254
:011298002233
:10117D00900000EEF0A3EFF0A3ECF0A3EDF0A3EBE5
:10118D00F0A3EAF0A3E9F0900004E0FBA3E0FAA3DA
:10119D00E0F9120E69FB606BD3900001E094E090D2
:1011AD000000E094004012E4F0A3F0900003E0246E
:1011BD0010F0900002E03400F0D3900003E0943082
:1011CD00900002E09401400BE4900000F0A3F0A326
:1011DD00F0A3F0900000E0FEA3E0FFA3E0FCA3E08D
:1011ED00FDE4900011F0120CD1900001E02408F004
:1011FD00900000E03400F0900005E475F001120E4F
:04120D008280842235
:10151E00E4FDFCC3ED9FEE6480F8EC6480985015FA
:10152E00E4FBFA0BBB00010ABA03F8BBE8F50DBDEC
:05153E0000010C80DE3D
:011543002285
:1000030000000000000000000000800000FEFF016F
:1000130000FEFF010006C0000006C0000006C0008D
:1000230000FEFF000006C0000006C0000006C0007E
:1000330000FEFF000006C0000006C0000002000032
:1000430030300C1CF07FFC3F30300C1C30300C1C6B
:1000530030300C1C30300C1CF03FFC1F30300C1CBB
:1000630030300C1C30300C1C30300C1CF03FFC1FAB
:10007300F03FFC1F30300C1C3010040C000000005B
:100083000000000000000000C0000808C0F1FF1FCE
:10009300C0F0FF1FC0484C1CC4DCCC1DCCDC8D1D44
:1000A300DC8E8D1DD8060E1FF8C3EF1DF8F1EC1C76
:1000B300D0601D1CC01C770CFE9FE7003483E30C4B
:1000C30030C3FF1F30C3610030E3610030E36106DA
:1000D30030F3FF0F30DB610030FB610438DB610E6E
:1000E30018CFFF0F18C7610098C761000CC36138B0
:1000F30004C2FF3F06C0010002C00100000000006F
:1001030000000000000000000000000000000000EC
:100113000000000808080808080800001818000074
:1001230000486C24120000000000000000000000E2
:100133000000002424247F1212127F1212120000E6
:100143000000081C2A2A0A0C1828282A2A1C080836
:1001530000000022251515152A5854545422000076
:100163000000000C1212120A76252911916E00006C
:100173000006060403000000000000000000000069
:10018300004020101008080808080810102040003C
:1001930000020408081010101010100808040200D0
:1001A3000000000008086B1C1C6B0808000000001E
:1001B30000000000080808087F080808080000007D
:1001C3000000000000000000000000000606040319
:1001D3000000000000000000FE000000000000001E
:1001E3000000000000000000000000000606000000
:1001F3000000804040202010100808040402020080
:1002030000000018244242424242424224180000A5
:10021300000000080E08080808080808083E000047
:100223000000003C4242422020100804427E0000AD
:100233000000003C4242201820404042221C0000A3
:10024300000000203028242422227E202078000071
:100253000000007E0202021A26404042221C0000D7
:10026300000000382402021A2642424224180000E9
:100273000000007E22221010080808080808000069
:100283000000003C4242422418244242423C000007
:10029300000000182442424264584040241C0000DD
:1002A30000000000000018180000000018180000EB
:1002B300000000000000000800000000000808041F
:1002C3000000004020100804020408102040000031
:1002D3000000000000007F0000007F00000000001D
:1002E300000000020408102040201008040200004F
:1002F3000000003C42424640201010001818000045
:100303000000001C225A555555552D42221C000051
:100313000000000808181414243C224242E700009D
:100323000000001F2222221E22424242221F0000FE
:100333000000007C4242010101010142221C000035
:100343000000001F2242424242424242221F00005A
:100353000000003F4212121E12120242423F0000EE
:100363000000003F4212121E121202020207000096
:100373000000003C2222010101712122221C000005
:10038300000000E7424242427E42424242E700000E
:100393000000003E0808080808080808083E000096
:1003A3000000007C10101010101010101010110F0E
:1003B3000000007722120A0E0A121222227700008E
:1003C300000000070202020202020202427F000052
:1003D30000000077363636362A2A2A2A2A6B00008E
:1003E300000000E346464A4A525252626247000006
:1003F3000000001C2241414141414141221C0000B7
:100403000000003F424242423E0202020207000055
:100413000000001C2241414141414D53321C600008
:100423000000003F4242423E1212222242C7000015
:100433000000007C4242020418204042423E000079
:100443000000007F4908080808080808081C000085
:10045300000000E74242424242424242423C000024
:10046300000000E742422224241414180808000064
:100473000000006B494949495555362222220000A4
:10048300000000E7422424181818242442E700003F
:10049300000000772222141408080808081C000032
:1004A3000000007E2120101008040442423F000097
:1004B30000780808080808080808080808087800E9
:1004C3000000020204040808081010202020404005
:1004D300001E1010101010101010101010101E001D
:1004E300003844000000000000000000000000008D
:1004F300000000000000000000000000000000FFFA
:1005030000060800000000000000000000000000DA
:10051300000000000000003C4278444242FC00001E
:10052300000000030202021A26424242261A000079
:1005330000000000000000384402020244380000BA
:1005430000000060404040784442424264D80000CA
:10055300000000000000003C427E0202423C00001A
:10056300000000F08808087E08080808083E00001C
:10057300000000000000007C22221C023C42423C9E
:10058300000000030202023A4642424242E70000F0
:100593000000000C0C00000E08080808083E0000CC
:1005A3000000003030000038202020202020221EB0
:1005B3000000000302020272120A161222770000E0
:1005C3000000000E0808080808080808083E000094
:1005D300000000000000007F9292929292B7000008
:1005E300000000000000003B4642424242E7000098
:1005F300000000000000003C42424242423C000036
:10060300000000000000001B26424242221E020797
:10061300000000000000007844424242447840E079
:1006230000000000000000774C040404041F0000D5
:10063300000000000000007C42023C40423E0000FB
:10064300000000000008083E080808080830000001
:1006530000000000000000634242424262DC0000EE
:1006630000000000000000E74224241408080000F2
:1006730000000000000000EB49495555222200000C
:10068300000000000000007624181818246E0000F3
:1006930000000000000000E74224241418080807A3
:1006A300000000000000007E22100808447E0000C5
:1006B30000C0202020202010202020202020C00047
:1006C3001010101010101010101010101010101027
:1006D30000060808080808100808080808080600A3
:1006E3000C32C20000000000000000000000000007
:100E6900BB010689828A83E0225002E722BBFE0287
:090E7900E32289828A83E49322BA
:100E8200C5F0F8A3E028F0C5F0F8E58215827002FB
:060E92001583E038F02298
:100E9800E88FF0A4CC8BF0A42CFCE98EF0A42CFCF9
:100EA8008AF0EDA42CFCEA8EF0A4CDA8F08BF0A477
:100EB8002DCC3825F0FDE98FF0A42CCD35F0FCEBD6
:100EC8008EF0A4FEA9F0EB8FF0A4CFC5F02ECD399B
:0F0ED800FEE43CFCEAA42DCE35F0FDE43CFC2208
:100EE70075F008758200EF2FFFEE33FECD33CDCCC2
:100EF70033CCC58233C5829BED9AEC99E582984045
:100F07000CF582EE9BFEED9AFDEC99FC0FD5F0D621
:100F1700E4CEFBE4CDFAE4CCF9A88222B800C1B94B
:100F27000059BA002DEC8BF084CFCECDFCE5F0CB89
:100F3700F97818EF2FFFEE33FEED33FDEC33FCEBC2
:100F470033FB10D703994004EB99FB0FD8E5E4F97D
:100F5700FA227818EF2FFFEE33FEED33FDEC33FC6A
:100F6700C933C910D7059BE99A4007EC9BFCE99A5E
:100F7700F90FD8E0E4C9FAE4CCFB2275F010EF2FA3
:100F8700FFEE33FEED33FDCC33CCC833C810D707A3
:100F97009BEC9AE899400AED9BFDEC9AFCE899F8DE
:0E0FA7000FD5F0DAE4CDFBE4CCFAE4C8F92271
:0C0FB500ECF0A3EDF0A3EEF0A3EFF022AF
:100FC100A8828583F0D083D082120FD8120FD81255
:100FD1000FD8120FD8E473E493A3C583C5F0C5837A
:100FE100C8C582C8F0A3C583C5F0C583C8C582C87A
:010FF10022DD
:00000001FF
